{
  "contractName": "PropertyOwnership",
  "abi": [
    {
      "anonymous": false,
      "inputs": [
        {
          "indexed": false,
          "internalType": "uint256",
          "name": "id",
          "type": "uint256"
        },
        {
          "indexed": false,
          "internalType": "bool",
          "name": "isForSale",
          "type": "bool"
        }
      ],
      "name": "PropertyListedForSale",
      "type": "event"
    },
    {
      "anonymous": false,
      "inputs": [
        {
          "indexed": false,
          "internalType": "uint256",
          "name": "id",
          "type": "uint256"
        },
        {
          "indexed": false,
          "internalType": "string",
          "name": "location",
          "type": "string"
        },
        {
          "indexed": false,
          "internalType": "address",
          "name": "owner",
          "type": "address"
        }
      ],
      "name": "PropertyRegistered",
      "type": "event"
    },
    {
      "anonymous": false,
      "inputs": [
        {
          "indexed": false,
          "internalType": "uint256",
          "name": "id",
          "type": "uint256"
        },
        {
          "indexed": false,
          "internalType": "address",
          "name": "newOwner",
          "type": "address"
        }
      ],
      "name": "PropertyTransferred",
      "type": "event"
    },
    {
      "inputs": [],
      "name": "nextPropertyId",
      "outputs": [
        {
          "internalType": "uint256",
          "name": "",
          "type": "uint256"
        }
      ],
      "stateMutability": "view",
      "type": "function",
      "constant": true
    },
    {
      "inputs": [
        {
          "internalType": "address",
          "name": "",
          "type": "address"
        },
        {
          "internalType": "uint256",
          "name": "",
          "type": "uint256"
        }
      ],
      "name": "ownerToProperties",
      "outputs": [
        {
          "internalType": "uint256",
          "name": "",
          "type": "uint256"
        }
      ],
      "stateMutability": "view",
      "type": "function",
      "constant": true
    },
    {
      "inputs": [
        {
          "internalType": "uint256",
          "name": "",
          "type": "uint256"
        }
      ],
      "name": "properties",
      "outputs": [
        {
          "internalType": "uint256",
          "name": "id",
          "type": "uint256"
        },
        {
          "internalType": "string",
          "name": "location",
          "type": "string"
        },
        {
          "internalType": "address",
          "name": "owner",
          "type": "address"
        },
        {
          "internalType": "bool",
          "name": "isForSale",
          "type": "bool"
        }
      ],
      "stateMutability": "view",
      "type": "function",
      "constant": true
    },
    {
      "inputs": [
        {
          "internalType": "string",
          "name": "_location",
          "type": "string"
        }
      ],
      "name": "registerProperty",
      "outputs": [],
      "stateMutability": "nonpayable",
      "type": "function"
    },
    {
      "inputs": [
        {
          "internalType": "uint256",
          "name": "_id",
          "type": "uint256"
        },
        {
          "internalType": "address",
          "name": "_newOwner",
          "type": "address"
        }
      ],
      "name": "transferOwnership",
      "outputs": [],
      "stateMutability": "nonpayable",
      "type": "function"
    },
    {
      "inputs": [
        {
          "internalType": "uint256",
          "name": "_id",
          "type": "uint256"
        },
        {
          "internalType": "bool",
          "name": "_isForSale",
          "type": "bool"
        }
      ],
      "name": "listPropertyForSale",
      "outputs": [],
      "stateMutability": "nonpayable",
      "type": "function"
    },
    {
      "inputs": [
        {
          "internalType": "address",
          "name": "_owner",
          "type": "address"
        }
      ],
      "name": "getOwnerProperties",
      "outputs": [
        {
          "internalType": "uint256[]",
          "name": "",
          "type": "uint256[]"
        }
      ],
      "stateMutability": "view",
      "type": "function",
      "constant": true
    },
    {
      "inputs": [
        {
          "internalType": "uint256",
          "name": "_id",
          "type": "uint256"
        }
      ],
      "name": "getProperty",
      "outputs": [
        {
          "components": [
            {
              "internalType": "uint256",
              "name": "id",
              "type": "uint256"
            },
            {
              "internalType": "string",
              "name": "location",
              "type": "string"
            },
            {
              "internalType": "address",
              "name": "owner",
              "type": "address"
            },
            {
              "internalType": "bool",
              "name": "isForSale",
              "type": "bool"
            }
          ],
          "internalType": "struct PropertyOwnership.Property",
          "name": "",
          "type": "tuple"
        }
      ],
      "stateMutability": "view",
      "type": "function",
      "constant": true
    }
  ],
  "bytecode": "0x608060405234801561001057600080fd5b50611457806100206000396000f3fe608060405234801561001057600080fd5b50600436106100885760003560e01c8063d2675d591161005b578063d2675d5914610127578063e36a9f9c14610143578063e797888e1461015f578063f7b108081461018f57610088565b806329507f731461008d57806332665ffb146100a957806339500f34146100d9578063cb644897146100f7575b600080fd5b6100a760048036038101906100a29190610d26565b6101c2565b005b6100c360048036038101906100be9190610cfd565b610394565b6040516100d09190611025565b60405180910390f35b6100e16104cd565b6040516100ee9190611047565b60405180910390f35b610111600480360381019061010c9190610c57565b6104d3565b60405161011e9190610fc3565b60405180910390f35b610141600480360381019061013c9190610cbc565b61056a565b005b61015d60048036038101906101589190610d62565b610707565b005b61017960048036038101906101749190610c80565b610814565b6040516101869190611047565b60405180910390f35b6101a960048036038101906101a49190610cfd565b610845565b6040516101b994939291906110f2565b60405180910390f35b3373ffffffffffffffffffffffffffffffffffffffff1660008084815260200190815260200160002060020160009054906101000a900473ffffffffffffffffffffffffffffffffffffffff1673ffffffffffffffffffffffffffffffffffffffff1614610265576040517f08c379a000000000000000000000000000000000000000000000000000000000815260040161025c90611005565b60405180910390fd5b8060008084815260200190815260200160002060020160006101000a81548173ffffffffffffffffffffffffffffffffffffffff021916908373ffffffffffffffffffffffffffffffffffffffff160217905550600080600084815260200190815260200160002060020160146101000a81548160ff0219169083151502179055506102f1338361092a565b600160008273ffffffffffffffffffffffffffffffffffffffff1673ffffffffffffffffffffffffffffffffffffffff1681526020019081526020016000208290806001815401808255809150506001900390600052602060002001600090919091909150557f8112a0a075a8fbda3b9c8c9cd01686a7922300f54c3793c450bb8ea8e4f41c1b8282604051610388929190611062565b60405180910390a15050565b61039c610acd565b600080838152602001908152602001600020604051806080016040529081600082015481526020016001820180546103d3906112c3565b80601f01602080910402602001604051908101604052809291908181526020018280546103ff906112c3565b801561044c5780601f106104215761010080835404028352916020019161044c565b820191906000526020600020905b81548152906001019060200180831161042f57829003601f168201915b505050505081526020016002820160009054906101000a900473ffffffffffffffffffffffffffffffffffffffff1673ffffffffffffffffffffffffffffffffffffffff1673ffffffffffffffffffffffffffffffffffffffff1681526020016002820160149054906101000a900460ff1615151515815250509050919050565b60025481565b6060600160008373ffffffffffffffffffffffffffffffffffffffff1673ffffffffffffffffffffffffffffffffffffffff16815260200190815260200160002080548060200260200160405190810160405280929190818152602001828054801561055e57602002820191906000526020600020905b81548152602001906001019080831161054a575b50505050509050919050565b60006002600081548092919061057f906112f5565b91905055905060405180608001604052808281526020018381526020013373ffffffffffffffffffffffffffffffffffffffff168152602001600015158152506000808381526020019081526020016000206000820151816000015560208201518160010190805190602001906105f7929190610b0d565b5060408201518160020160006101000a81548173ffffffffffffffffffffffffffffffffffffffff021916908373ffffffffffffffffffffffffffffffffffffffff16021790555060608201518160020160146101000a81548160ff021916908315150217905550905050600160003373ffffffffffffffffffffffffffffffffffffffff1673ffffffffffffffffffffffffffffffffffffffff1681526020019081526020016000208190806001815401808255809150506001900390600052602060002001600090919091909150557f48f60036379fd7c4097915cf4b2dcab366c2d3881ae8b3cb2c19d6f7e35719b98183336040516106fb939291906110b4565b60405180910390a15050565b3373ffffffffffffffffffffffffffffffffffffffff1660008084815260200190815260200160002060020160009054906101000a900473ffffffffffffffffffffffffffffffffffffffff1673ffffffffffffffffffffffffffffffffffffffff16146107aa576040517f08c379a00000000000000000000000000000000000000000000000000000000081526004016107a190610fe5565b60405180910390fd5b8060008084815260200190815260200160002060020160146101000a81548160ff0219169083151502179055507f063cf45b2f2c92bd3a9dc9f95b22e86cf14ac01bcebf0ba999845b5e213bf668828260405161080892919061108b565b60405180910390a15050565b6001602052816000526040600020818154811061083057600080fd5b90600052602060002001600091509150505481565b600060205280600052604060002060009150905080600001549080600101805461086e906112c3565b80601f016020809104026020016040519081016040528092919081815260200182805461089a906112c3565b80156108e75780601f106108bc576101008083540402835291602001916108e7565b820191906000526020600020905b8154815290600101906020018083116108ca57829003601f168201915b5050505050908060020160009054906101000a900473ffffffffffffffffffffffffffffffffffffffff16908060020160149054906101000a900460ff16905084565b6000600160008473ffffffffffffffffffffffffffffffffffffffff1673ffffffffffffffffffffffffffffffffffffffff168152602001908152602001600020905060005b8180549050811015610ac757828282815481106109b6577f4e487b7100000000000000000000000000000000000000000000000000000000600052603260045260246000fd5b90600052602060002001541415610ab45781600183805490506109d99190611205565b81548110610a10577f4e487b7100000000000000000000000000000000000000000000000000000000600052603260045260246000fd5b9060005260206000200154828281548110610a54577f4e487b7100000000000000000000000000000000000000000000000000000000600052603260045260246000fd5b906000526020600020018190555081805480610a99577f4e487b7100000000000000000000000000000000000000000000000000000000600052603160045260246000fd5b60019003818190600052602060002001600090559055610ac7565b8080610abf906112f5565b915050610970565b50505050565b60405180608001604052806000815260200160608152602001600073ffffffffffffffffffffffffffffffffffffffff1681526020016000151581525090565b828054610b19906112c3565b90600052602060002090601f016020900481019282610b3b5760008555610b82565b82601f10610b5457805160ff1916838001178555610b82565b82800160010185558215610b82579182015b82811115610b81578251825591602001919060010190610b66565b5b509050610b8f9190610b93565b5090565b5b80821115610bac576000816000905550600101610b94565b5090565b6000610bc3610bbe8461116f565b61113e565b905082815260208101848484011115610bdb57600080fd5b610be6848285611281565b509392505050565b600081359050610bfd816113dc565b92915050565b600081359050610c12816113f3565b92915050565b600082601f830112610c2957600080fd5b8135610c39848260208601610bb0565b91505092915050565b600081359050610c518161140a565b92915050565b600060208284031215610c6957600080fd5b6000610c7784828501610bee565b91505092915050565b60008060408385031215610c9357600080fd5b6000610ca185828601610bee565b9250506020610cb285828601610c42565b9150509250929050565b600060208284031215610cce57600080fd5b600082013567ffffffffffffffff811115610ce857600080fd5b610cf484828501610c18565b91505092915050565b600060208284031215610d0f57600080fd5b6000610d1d84828501610c42565b91505092915050565b60008060408385031215610d3957600080fd5b6000610d4785828601610c42565b9250506020610d5885828601610bee565b9150509250929050565b60008060408385031215610d7557600080fd5b6000610d8385828601610c42565b9250506020610d9485828601610c03565b9150509250929050565b6000610daa8383610fa5565b60208301905092915050565b610dbf81611239565b82525050565b610dce81611239565b82525050565b6000610ddf826111af565b610de981856111d2565b9350610df48361119f565b8060005b83811015610e25578151610e0c8882610d9e565b9750610e17836111c5565b925050600181019050610df8565b5085935050505092915050565b610e3b8161124b565b82525050565b610e4a8161124b565b82525050565b6000610e5b826111ba565b610e6581856111e3565b9350610e75818560208601611290565b610e7e816113cb565b840191505092915050565b6000610e94826111ba565b610e9e81856111f4565b9350610eae818560208601611290565b610eb7816113cb565b840191505092915050565b6000610ecf6020836111f4565b91507f4f6e6c7920746865206f776e65722063616e206c69737420666f722073616c656000830152602082019050919050565b6000610f0f601b836111f4565b91507f4f6e6c7920746865206f776e65722063616e207472616e7366657200000000006000830152602082019050919050565b6000608083016000830151610f5a6000860182610fa5565b5060208301518482036020860152610f728282610e50565b9150506040830151610f876040860182610db6565b506060830151610f9a6060860182610e32565b508091505092915050565b610fae81611277565b82525050565b610fbd81611277565b82525050565b60006020820190508181036000830152610fdd8184610dd4565b905092915050565b60006020820190508181036000830152610ffe81610ec2565b9050919050565b6000602082019050818103600083015261101e81610f02565b9050919050565b6000602082019050818103600083015261103f8184610f42565b905092915050565b600060208201905061105c6000830184610fb4565b92915050565b60006040820190506110776000830185610fb4565b6110846020830184610dc5565b9392505050565b60006040820190506110a06000830185610fb4565b6110ad6020830184610e41565b9392505050565b60006060820190506110c96000830186610fb4565b81810360208301526110db8185610e89565b90506110ea6040830184610dc5565b949350505050565b60006080820190506111076000830187610fb4565b81810360208301526111198186610e89565b90506111286040830185610dc5565b6111356060830184610e41565b95945050505050565b6000604051905081810181811067ffffffffffffffff821117156111655761116461139c565b5b8060405250919050565b600067ffffffffffffffff82111561118a5761118961139c565b5b601f19601f8301169050602081019050919050565b6000819050602082019050919050565b600081519050919050565b600081519050919050565b6000602082019050919050565b600082825260208201905092915050565b600082825260208201905092915050565b600082825260208201905092915050565b600061121082611277565b915061121b83611277565b92508282101561122e5761122d61133e565b5b828203905092915050565b600061124482611257565b9050919050565b60008115159050919050565b600073ffffffffffffffffffffffffffffffffffffffff82169050919050565b6000819050919050565b82818337600083830152505050565b60005b838110156112ae578082015181840152602081019050611293565b838111156112bd576000848401525b50505050565b600060028204905060018216806112db57607f821691505b602082108114156112ef576112ee61136d565b5b50919050565b600061130082611277565b91507fffffffffffffffffffffffffffffffffffffffffffffffffffffffffffffffff8214156113335761133261133e565b5b600182019050919050565b7f4e487b7100000000000000000000000000000000000000000000000000000000600052601160045260246000fd5b7f4e487b7100000000000000000000000000000000000000000000000000000000600052602260045260246000fd5b7f4e487b7100000000000000000000000000000000000000000000000000000000600052604160045260246000fd5b6000601f19601f8301169050919050565b6113e581611239565b81146113f057600080fd5b50565b6113fc8161124b565b811461140757600080fd5b50565b61141381611277565b811461141e57600080fd5b5056fea2646970667358221220dfdce87494620b209d70394e6bd1ea074e6d8c08367deb3565b0adf2812e232864736f6c63430008000033",
  "immutableReferences": {},
  "source": "// SPDX-License-Identifier: MIT\r\npragma solidity ^0.8.0;\r\n\r\ncontract PropertyOwnership {\r\n    struct Property {\r\n        uint256 id;\r\n        string location;\r\n        address owner;\r\n        bool isForSale;\r\n    }\r\n\r\n    mapping(uint256 => Property) public properties;\r\n    mapping(address => uint256[]) public ownerToProperties;\r\n\r\n    uint256 public nextPropertyId;\r\n\r\n    event PropertyRegistered(uint256 id, string location, address owner);\r\n    event PropertyTransferred(uint256 id, address newOwner);\r\n    event PropertyListedForSale(uint256 id, bool isForSale);\r\n\r\n    function registerProperty(string memory _location) public {\r\n        uint256 propertyId = nextPropertyId++;\r\n        properties[propertyId] = Property(propertyId, _location, msg.sender, false);\r\n        ownerToProperties[msg.sender].push(propertyId);\r\n\r\n        emit PropertyRegistered(propertyId, _location, msg.sender);\r\n    }\r\n\r\n    function transferOwnership(uint256 _id, address _newOwner) public {\r\n        require(properties[_id].owner == msg.sender, \"Only the owner can transfer\");\r\n        properties[_id].owner = _newOwner;\r\n        properties[_id].isForSale = false;\r\n\r\n        // Remove property from current owner\r\n        removePropertyFromOwner(msg.sender, _id);\r\n        // Add property to new owner\r\n        ownerToProperties[_newOwner].push(_id);\r\n\r\n        emit PropertyTransferred(_id, _newOwner);\r\n    }\r\n\r\n    function listPropertyForSale(uint256 _id, bool _isForSale) public {\r\n        require(properties[_id].owner == msg.sender, \"Only the owner can list for sale\");\r\n        properties[_id].isForSale = _isForSale;\r\n\r\n        emit PropertyListedForSale(_id, _isForSale);\r\n    }\r\n\r\n    function removePropertyFromOwner(address _owner, uint256 _id) internal {\r\n        uint256[] storage propertyIds = ownerToProperties[_owner];\r\n        for (uint256 i = 0; i < propertyIds.length; i++) {\r\n            if (propertyIds[i] == _id) {\r\n                propertyIds[i] = propertyIds[propertyIds.length - 1];\r\n                propertyIds.pop();\r\n                break;\r\n            }\r\n        }\r\n    }\r\n\r\n    function getOwnerProperties(address _owner) public view returns (uint256[] memory) {\r\n        return ownerToProperties[_owner];\r\n    }\r\n\r\n    function getProperty(uint256 _id) public view returns (Property memory) {\r\n        return properties[_id];\r\n    }\r\n}\r\n",
  "sourcePath": "C:\\Users\\awort\\Desktop\\property\\contracts\\PropertyOwnership.sol",
  "compiler": {
    "name": "solc",
    "version": "0.8.0+commit.c7dfd78e.Emscripten.clang"
  },
  "schemaVersion": "3.4.16",
  "updatedAt": "2024-08-25T06:22:18.910Z",
  "networkType": "ethereum",
  "devdoc": {
    "kind": "dev",
    "methods": {},
    "version": 1
  },
  "userdoc": {
    "kind": "user",
    "methods": {},
    "version": 1
  }
}